:020000020000FC
:103F0000222408E00BB9E0E0F0E0C591D4912196BD
:103F100039F04B9B03C0549A04914B990C940000C8
:103F20002224DD27C0EC2D8207E00C83288208E1E3
:103F3000098306E00A8304E00EBF2DBE42D00D3097
:103F4000D1F3502F33D0573681F1523759F05737CC
:103F500079F0553699F703E049D001E147D00EE2F8
:103F600040D0E9CF40E8059133D04A95E1F7F7CF4B
:103F700040E41FD0012E102E01E038D032964A9531
:103F8000C1F705D0E058F04005E030D0E6CF19D0B9
:103F90000D3089F6089515D0005368F20A3020F0EC
:103FA000075048F2003138F60895099402D0F8011C
:103FB000EECF01D0102FEFDF0295202FECDF022B88
:103FC0000895388137FFFDCF0E810A30D1F308956F
:103FD000102F029501D0012F0F70005D0A3308F0F9
:103FE000095F388135FFFDCF0E83089537B730FD67
:083FF000FDCF07BFE89508951D
:043FFC00F7CF90CF9C
:00000001FF
